:020000020000FC
:100000000C94780B0C94947A18951895189518956B
:100010001895189518951895189518951895189578
:100020001895189518951895189518950C94837A25
:100030001895189518951895189518951895189558
:100040001895189518951895189518951895189548
:100050001895189518951895189518950C949C1046
:100060001895189518951895189518950C94090FCA
:10007000189518950C94357A189518951895189523
:100080001895189518951895189518950C94C611EB
:1000900018951895189518951895189518951895F8
:1000A00018951895189518951895189518951895E8
:1000B000189518950C94F812189518951895189588
:1000C00018951895189518950C94991318951895D6
:1000D00018951895189518951895189518951895B8
:1000E0001895189547442D310A0D00000A0D00009F
:1000F000002A3030002074657374002A30310020EB
:100100007265736574002A30320020766572002AA9
:100110003033002072756E002A3034002076617210
:10012000002A3036002072656164002A30370020D2
:10013000746162002A30380020727864002A3039F5
:10014000002074626B002A3130003939200A000027
:10015000212121204572726F72202121210A0D0078
:100160000042616420636F6D6D616E640A0D000072
:1001700020204F6B210A0D000050726F6772616D75
:100180006D206F6620746865205465737420474441
:100190000A0D0000517569745B515D0A0D00006F16
:1001A00066662F6F6E202052454C455B725D2C2099
:1001B0004741535B675D2C204D555A445B6D5D0A8A
:1001C0000D00006F66662F6F6E20204B6C5B315DFB
:1001D0002C204B325B325D2C204B335B335D2C206B
:1001E0004B5B345D0A0D00005461786F6D6574657A
:1001F00072205B745D2C20416B73656C6572617459
:100200006F725B615D0A0D00004F4E200A0D000009
:100210004F4646200A0D00006E6F6E64656665638A
:100220007469766500006661696C000053657269E7
:10023000616C203D200000534D6F746F725F4B3135
:10024000203D2000004B705F4761696E5F32203DAA
:1002500020000069646C696E67206D6F746F722096
:100260003D20000048696768204C6576656C205029
:100270004944203D2000004C6F77204C6576656C2A
:1002800020504944203D20000046617A615B3135B1
:100290005D203D200000466C61672044756F2F4D46
:1002A0006F6E6F203D20000050726573737572652C
:1002B000206F6666736574203D2000005072657380
:1002C00073757265204B6F656666203D2000005A8D
:1002D0006170617A646976616E696520706F206F04
:1002E000626F726F74616D203D2000004C6F77204B
:1002F0006C6576656C2049646C696E67203D2000F2
:1003000000537465705B31355D203D2000004D6FFA
:10031000746F722053746570204F66667365742025
:100320003D2000004D61686F76696B20746F6F74BB
:1003300068203D2000004572726F72203D20000051
:1003400054656D705F4761696E5F31203D2000002C
:1003500054656D705F4761696E5F32203D2000001B
:1003600054656D702E207072656420636F6C6C65CF
:1003700063746F72203D200000445F6D696E203D04
:10038000200000445F6D6178203D200000486967CF
:1003900068204C6576656C2047415320666F72205B
:1003A00074656D7065726174757265203D20000022
:1003B000454E442050414B45542000005045444197
:1003C0004C200000766172204B3020000076617274
:1003D000204B31200000766172204B3220000076E5
:1003E0006172204B33200000766172204B34200074
:1003F0000076617220546320000076617220446CA4
:10040000200000766172204468200000766172202E
:100410004964200000766172204D6F2000007661F3
:100420007220546F20000076617220546B2000000F
:1004300076617220546D200000766172204D742028
:10044000000076617220506C2000007661722050AE
:100450006920000072756E5F474420000073746F5E
:10046000705F47442000006F6B5F72756E5F47449A
:100470002000006572726F725F4744200000746153
:1004800062204454313120000044545F31315F45D3
:100490004E44200000746162204454313220000038
:1004A00044545F31325F454E442000007461622045
:1004B0004454313320000044545F31335F454E448F
:1004C0002000007461622044543134200000445400
:1004D0005F31345F454E4420000074616220445413
:1004E000313520000044545F31355F454E442000D3
:1004F00000746162204454313620000044545F315E
:10050000365F454E4420000074616220445432310D
:1005100020000044545F32315F454E442000007497
:100520006162204454323220000044545F32325F12
:10053000454E442000007461622044543233200050
:100540000044545F32335F454E44200000746162C2
:10055000204454323420000044545F32345F454E0E
:10056000442000007461622044543235200000446D
:10057000545F32355F454E44200000746162204470
:1005800054323620000044545F32365F454E4420DA
:100590000000746162204454323720000044545FEC
:1005A00032375F454E44200000746162204454326B
:1005B0003820000044545F32385F454E442000002C
:1005C000746162204454323920000044545F32394F
:1005D0005F454E4420000074616220445433302053
:1005E000000044545F33305F454E44200000746186
:1005F00062204454333120000044545F33315F455E
:100600004E442000007461622044543332200000C4
:1006100044545F33325F454E4420000074616220D1
:100620004454333320000044545F33335F454E4419
:10063000200000746162204454333420000044548C
:100640005F33345F454E442000007461622044549F
:10065000333520000044545F33355F454E4420005D
:1006600000746162204454343120000044545F34EB
:10067000315F454E442000007462312044543031D3
:100680002000007462312044543032200000746233
:1006900031204454303320000074623120445430FF
:1006A000342000007462312044543035200000743E
:1006B00062312044543036200000746231204454AA
:1006C000303720000074623120445430382000005C
:1006D0007462312044543039200000746231204467
:1006E00054313020000074623120445431312000F4
:1006F0000074623120445431322000007462312091
:100700004454313320000074623120445431342089
:10071000000074623120445431352000007462328C
:10072000204454303120000074623220445430326E
:100730002000007462322044543033200000746280
:10074000322044543034200000746232204454304B
:10075000352000007462322044543036200000748A
:1007600062322044543037200000746232204454F6
:1007700030382000007462322044543039200000A8
:1007800074623220445431302000007462322044BC
:100790005431312000007462322044543132200040
:1007A00000746232204454313320000074623220DD
:1007B00044543134200000746232204454313520D6
:1007C00000007462332044543031200000746233DE
:1007D00020445430322000007462332044543033BB
:1007E00020000074623320445430342000007462CE
:1007F0003320445430352000007462332044543098
:1008000036200000746233204454303720000074D6
:100810006233204454303820000074623320445442
:1008200030392000007462332044543130200000FD
:100830007462332044543131200000746233204408
:10084000543132200000746233204454313320008C
:100850000074623320445431342000007462332029
:100860004454313520000074623420445430312027
:10087000000074623420445430322000007462342A
:100880002044543033200000746234204454303407
:10089000200000746234204454303520000074621B
:1008A00034204454303620000074623420445430E4
:1008B0003720000074623420445430382000007423
:1008C000623420445430392000007462342044548F
:1008D0003130200000746234204454313120000053
:1008E0007462342044543132200000746234204455
:1008F00054313320000074623420445431342000D9
:100900000074623420445431352000007462352074
:100910004454303120000074623520445430322079
:100920000000746235204454303320000074623576
:100930002044543034200000746235204454303553
:100940002000007462352044543036200000746268
:100950003520445430372000007462352044543030
:10096000382000007462352044543039200000746F
:1009700062352044543130200000746235204454E4
:10098000313120000074623520445431322000009F
:1009900074623520445431332000007462352044A1
:1009A0005431342000007462352044543135200025
:1009B00000746236204454303120000074623620C6
:1009C00044543032200000746236204454303320C6
:1009D00000007462362044543034200000746236C3
:1009E00020445430352000007462362044543036A0
:1009F00020000074623620445430372000007462B6
:100A0000362044543038200000746236204454307C
:100A100039200000746236204454313020000074C4
:100A20006236204454313120000074623620445430
:100A300031322000007462362044543133200000EB
:100A400074623620445431342000007462362044ED
:100A50005431352000007462372044543031200076
:100A60000074623720445430322000007462372012
:100A70004454303320000074623720445430342012
:100A8000000074623720445430352000007462370F
:100A900020445430362000007462372044543037EC
:100AA0002000007462372044543038200000746203
:100AB00037204454303920000074623720445431C8
:100AC000302000007462372044543131200000741B
:100AD000623720445431322000007462372044547D
:100AE0003133200000746237204454313420000038
:100AF0007462372044543135200000746238204439
:100B000054303120000074623820445430322000C8
:100B1000007462382044543033200000746238205E
:100B2000445430342000007462382044543035205E
:100B3000000074623820445430362000007462385B
:100B40002044543037200000746238204454303838
:100B50002000007462382044543039200000746250
:100B6000382044543130200000746238204454311D
:100B70003120000074623820445431322000007467
:100B800062382044543133200000746238204454C9
:100B90003134200000746238204454313520000084
:100BA000746239204454303120000074623920448A
:100BB0005430322000007462392044543033200015
:100BC00000746239204454303420000074623920AB
:100BD00044543035200000746239204454303620AB
:100BE00000007462392044543037200000746239A8
:100BF0002044543038200000746239204454303985
:100C000020000074623920445431302000007462A6
:100C10003920445431312000007462392044543169
:100C200032200000746239204454313320000074B3
:100C30006239204454313420000074623920445415
:100C400031352000007462612044543031200000AE
:100C50007462612044543032200000746261204488
:100C6000543033200000746261204454303420003A
:100C700000746261204454303520000074626120A9
:100C800044543036200000746261204454303720D0
:100C900000007462612044543038200000746261A6
:100CA00020445430392000007462612044543130B3
:100CB00020000074626120445431312000007462CD
:100CC0006120445431322000007462612044543168
:100CD00033200000746261204454313420000074D9
:100CE0006261204454313520000074626220445413
:100CF0003031200000746262204454303220000001
:100D000074626220445430332000007462622044D4
:100D10005430342000007462622044543035200086
:100D200000746262204454303620000074626220F5
:100D3000445430372000007462622044543038201C
:100D400000007462622044543039200000746262F2
:100D50002044543130200000746262204454313108
:100D6000200000746262204454313220000074621A
:100D700062204454313320000074626220445431B4
:100D80003420000074626220445431352000007425
:100D90006263204454303120000074626320445464
:100DA000303220000074626320445430332000004D
:100DB0007462632044543034200000746263204421
:100DC00054303520000074626320445430362000D3
:100DD0000074626320445430372000007462632042
:100DE0004454303820000074626320445430392069
:100DF0000000746263204454313020000074626348
:100E00002044543131200000746263204454313254
:100E10002000007462632044543133200000746267
:100E20006320445431342000007462632044543100
:100E30003520000074626420445430312000007476
:100E400062642044543032200000746264204454B0
:100E50003033200000746264204454303420000099
:100E6000746264204454303520000074626420446D
:100E7000543036200000746264204454303720001F
:100E8000007462642044543038200000746264208E
:100E900044543039200000746264204454313020BE
:100EA0000000746264204454313120000074626494
:100EB00020445431322000007462642044543133A1
:100EC00020000074626420445431342000007462B5
:100ED000642044543135200000746264204454314D
:100EE00036200000746265204454303120000074C4
:100EF00062652044543032200000746265204454FE
:100F000030332000007462652044543034200000E7
:100F100074626520445430352000007462652044BA
:100F2000543036200000746265204454303720006D
:100F300000746265204454303820000074626520DB
:100F4000445430392000007462652044543130200C
:100F500000007462652044543131200000746265E1
:100F600020445431322000007462652044543133EF
:100F70002000007462652044543134200000746203
:100F8000652044543135200000746265204454319A
:100F9000362000000001002A17000A00151700176C
:100FA00017001917001B17002A17001E170021171A
:100FB000002317002617002817000100753B000FBB
:100FC00000A73B00BC3B00D13B00E63B00FB3B00E5
:100FD000103C00253C003A3C004F3C00643C00794A
:100FE0003C008E3C00A33C00B83C00613B0001008B
:100FF000253E000F00573E006C3E00813E00963EAD
:1010000000AB3E00C03E00D53E00EA3E00FF3E0081
:10101000143F00293F003E3F00533F00683F00114E
:101020003E000100D540000F000741001C41003187
:1010300041004641005B41007041008541009A41FA
:1010400000AF4100C44100D94100EE41000342001D
:10105000184200C1400001008543000F00B7430063
:10106000CC4300E14300F643000B4400204400352C
:1010700044004A44005F44007444008944009E4494
:1010800000B34400C8440071430001003546000F1E
:10109000006746007C4600914600A64600BB46001D
:1010A000D04600E54600FA46000F470024470039C5
:1010B00047004E4700634700784700214600010083
:1010C000E548000F001749002C49004149005649E6
:1010D000006B4900804900954900AA4900BF4900BA
:1010E000D44900E94900FE4900134A00284A00D1CA
:1010F00048000100954B000F00C64B00DB4B00F091
:101100004B00054C001A4C002F4C00444C00594C2D
:10111000006E4C00834C00984C00AD4C00C24C005B
:10112000D74C00814B000100444E000F00754E006B
:101130008A4E009F4E00B44E00C94E00DE4E00F3B2
:101140004E00084F001D4F00324F00474F005C4FCC
:1011500000714F00864F00304E000100F350000F29
:10116000002451003951004E510063510078510064
:101170008D5100A25100B75100CC5100E15100F651
:1011800051000B5200205200355200DF5000010088
:10119000A253000F00D35300E85300FD5300125434
:1011A000002754003C54005154006654007B540006
:1011B000905400A55400BA5400CF5400E454008E5B
:1011C000530001005156000F00825600975600ACA4
:1011D0005600C15600D65600EB5600005700155772
:1011E000002A57003F57005457006957007E5700A8
:1011F0009357003D560001000059000F003159007F
:101200004659005B59007059008559009A5900AF42
:101210005900C45900D95900EE5900035A00185A10
:10122000002D5A00425A00EC58000100AF5B000F3D
:1012300000E05B00F55B000A5C001F5C00345C00B2
:10124000495C005E5C00735C00885C009D5C00B2E1
:101250005C00C75C00DC5C00F15C009B5B00010093
:101260005E5E000F008F5E00A45E00B95E00CE5E81
:1012700000E35E00F85E000D5F00225F00375F0054
:101280004C5F00615F00765F008B5F00A05F004AEB
:101290005E0001000D61000F003E610053610068B7
:1012A00061007D6100926100A76100BC6100D161B5
:1012B00000E66100FB61001062002562003A6200F6
:1012C0004F6200F960000100BC63000F00ED630095
:1012D0000264001764002C64004164005664006BD3
:1012E0006400806400956400AA6400BF6400D46454
:1012F00000E96400FE6400A8630001006B66000F53
:10130000009C6600B16600C66600DB6600F0660001
:101310000567001A67002F67004467005967006E71
:101320006700836700986700AD670057660001009B
:101330001A69000F004B69006069007569008A69CD
:10134000009F6900B46900C96900DE6900F36900A3
:10135000086A001D6A00326A00476A005C6A00067B
:1013600069000100C96B000F00FA6B000F6C0024CC
:101370006C00396C004E6C00636C00786C008D6CF6
:1013800000A26C00B76C00CC6C00E16C00F66C0045
:101390000B6D00B56B000100796E000F00AA6E00A6
:1013A000BF6E00D46E00E96E00FE6E00136F002861
:1013B0006F003D6F00526F00676F007C6F00916F90
:1013C00000A66F00BB6F00656E0001002971000F61
:1013D000005A71006F7100847100997100AE710044
:1013E000C37100D87100ED71000272001772002CF9
:1013F00072004172005672006B720015710001009C
:10140000D773001000F17300F973000174000974C0
:1014100000117400197400217400297400317400E3
:1014200039740041740049740051740059740061AA
:101430007400D073000000008D9600E400788900ED
:10144000878900968900A58900B48900C38900D2E4
:101450008900E18900F08900FF89000D8A001C8A5B
:10146000002B8A003A8A00488A005B8A006E8A0054
:101470007F8A00908A00A18A00B28A00C38A00D4C1
:101480008A00E58A00F68A00078B00188B00298BFA
:10149000003A8B004B8B005C8B006D8B007E8B00C9
:1014A0008F8B00A08B00B18B00C28B00D38B00E42C
:1014B0008B00F58B00068C00178C00288C00398C73
:1014C000004A8C005B8C006C8C007D8C008E8C0044
:1014D0009F8C00B08C00C18C00D28C00E38C00F497
:1014E0008C00058D00168D00278D00388D00498DEC
:1014F000005A8D006B8D007C8D008D8D009E8D00BF
:10150000AF8D00C08D00D18D00E28D00F38D000401
:101510008E00158E00268E00378E00488E00598E64
:10152000006A8E007B8E008C8E009C8E00AC8E003C
:10153000BC8E00CC8E00DC8E00EC8E00FC8E000C8D
:101540008F001C8F002C8F003C8F004C8F005C8F15
:10155000006C8F007C8F008C8F009C8F00AC8F0004
:10156000BC8F00CC8F00DC8F00EC8F00FC8F000C58
:1015700090001C90002C90003C90004C90005990E2
:10158000006690007390008090008D90009A90000B
:10159000A79000B49000C19000CE9000DB9000E8CE
:1015A0009000F590000291000F91001C910029918C
:1015B000003691004391005091005D91006A9100C6
:1015C0007791008491009191009E9100AB9100B8B9
:1015D0009100C59100D29100DF9100EC9100F9914A
:1015E000000692001392002092002D92003A920081
:1015F0004792005492006192006E92007B920088A4
:101600009200959200A29200AF9200BC9200C99203
:1016100000D69200E39200F09200FD92000A93003F
:101620001793002493003193003E93004B9300588E
:1016300093006593007293007F93008C93009993BD
:1016400000A69300B39300C09300CD9300DA9300FB
:10165000E79300F493000194000E94001B9400287B
:1016600094003594004294004F94005C9400699477
:10167000007694008394009094009D9400AA9400B6
:10168000B79400C49400D19400DE9400EB9400F869
:1016900094000595001295001F95002C9500399532
:1016A000004695005395006095006D95007A950071
:1016B000879500949500A19500AE9500BC9500CA51
:1016C0009500D89500E69500F495000296001096D6
:1016D000001E96002C96003A9600489600569600FA
:1016E0006496007296008096000000008895FECFF8
:1016F0000FE40DBF02E00EBFC0E2D2E00E94DC9812
:10170000002311F00E94EE980E9435980E94750BFC
:101710000C94750B0024E8E0EA9532F0001F001CE1
:101720000416D0F3041AF8CF001F402D0095089539
:10173000149F102D059F100D049F002D110D08956D
:101740004A951AF015950795FBCF089500241124AA
:10175000EFE0001F111F001C111C0416150610F0ED
:10176000041A150AEA95AAF7001F111FA001009597
:10177000109508955195419550400895FF275523A0
:1017800012F4F160F7DF112312F4F09507D00E94F4
:10179000A60BF0FD03D0F1FDEDCF08951195019555
:1017A000104008954A952AF0369527951795079584
:1017B000F9CF089530952095109501951F4F2F4F23
:1017C0003F4F0895FF27112477FB660F771F08947A
:1017D00009F4771F679517F8EE27002437FB220FCF
:1017E000331F089409F4331F279507F8089527FD40
:1017F0000EC0EE0F001F111F221F3A953230B8F7AE
:10180000332319F427FD31E002C027FF30E0E03830
:1018100021F400FF08940EF488940F4F1F4F2F4FB0
:101820003F4F323038F4332319F427FD31E002C042
:1018300027FF30E03F3F29F0220F000C3795279516
:101840000895AAC0032E002012F40E94DA0BE02FA4
:10185000012F122F232F3EE9D1CFBEDF432F4F5749
:1018600048F04F3148F007FC91C03FE72FEF1FEFE2
:101870000FEF089533278CC0322F212F102F0E2FFA
:101880004F5141950E94D20B07FE08950C94DA0B3C
:10189000F901EE0FFF1F37FBFF3F31F0EF2BE12B7C
:1018A000E02B8894B8940895E02BE12B21F0089464
:1018B0009894B89408959894889438940895FB0166
:1018C000EE0FFF1F77FBFF3F31F0EF2BE52BE42BF3
:1018D0008894B8940895E42BE52B69F3E8CFEFDF03
:1018E00068F021F43723262F8A010895372FFBCF84
:1018F000E6DF20F00BF008957327EAF751C0C8DF48
:10190000E8F3B3F361F3DBDFC8F383F3A1F35ADF4A
:10191000401751076207730731F4011411F10024D5
:10192000E89488942BC078F0332E372F732D322E05
:10193000262F632D312E152F532D302E042F432D9E
:10194000302C012C132C371739F066955795479595
:10195000F795E0407395F7CFE7FBEE0FE0E010243A
:101960006AF0EF0F041F151F261F60F427951795C7
:101970000795E79508F46894339540CFEF0B040B77
:10198000150B260B3BCFE0E87E27B9CF302D307802
:1019900022271127002708953FE7302920E8F9CFB3
:1019A0003FEF2FEFF6CF8BDFD8F3D1F370783727E7
:1019B000089585DFA8F3A3F3F9CF3078372793CFC5
:1019C00067DF70F383F3A9F37ADF50F3B3F3A9F37E
:1019D000F9DE0124E8943F57E040370FEF1F12F083
:1019E000D9F603C03A3E90F26894E0E00A92AA93D6
:1019F0003A93AA27332422243327049FF001059F1A
:101A0000F00D712D731F149FF00D711D221C069F88
:101A1000700D211C331C159F700D211C331E249F3B
:101A2000700D211C331E169F200C311CAA1F259FF0
:101A3000200C311CA31F269F300CA11D39915EF490
:101A40003395A695379427947795F795E795339531
:101A50003130BCF316C0AA2322F0332351F433955E
:101A600010C0339571F4A991099096CFA7FD09C0D4
:101A70003A95EE0FFF1F771F221C331CAA1F32302E
:101A8000A8F7E894FE2B09F068942A2F8101E72F2C
:101A9000A9910990BCCE7791679157914791179082
:101AA00011FA2790379007900CBE0895F7DF041BBA
:101AB00010E003C0F2DF041B150B20E030E005C08E
:101AC000EADF041B150B260B370B28F110FC25C091
:101AD00047910790E00FF11F0417100540E024071D
:101AE0003407C8F486F412FE05C0E00FF11F079119
:101AF000069002C006910024F101E01BF0090CB72A
:101B000000400CBF1994E00FF11FE00FF11F279068
:101B1000379007900CBEF101199411F4C6F7E3CF8A
:101B2000319612FC31960EF0329650E060E070E093
:101B300047914B3F48F079F34F3F29F04E3F11F06A
:101B40007791679157914791041B150B260B370B23
:101B500029F308F3E5CFFA92EA92DA92CA92BA929E
:101B6000AA929A928A927A926A925A924A92BA93D4
:101B7000AA939A938A930895FF84EE84DD84CC849B
:101B8000BB84AA84998488847F806E805D804C8029
:101B9000BB81AA8199818881F0E00FB6F894CE0FBD
:101BA000DF1F0FBE08950E94B70D90E080E001E0B6
:101BB0000093FD0500E00093EF0500E00093A7050A
:101BC00000E00093A80500E00093A90500E0009361
:101BD000AA0500E00093F80500E00093F9050091E4
:101BE000020104600093020100910501077F009348
:101BF0000501009105010F7E00930501009105018B
:101C00000E7F00930501009105010D7F00930501F2
:101C10000CE7ACD101C000000091F9050837D8F3FA
:101C2000009102010B7F00930201E3E5F2E00081E5
:101C3000118148EC50E00E94BE0B802F833008F4E5
:101C400083E0803108F08FE004E010E0E5E9F4E0A3
:101C5000008311830091900410E090E0FC01E757AD
:101C6000FC4F408150E0400F511FE5E9F4E0008156
:101C700011810E94980BE3E9F4E00083118301C015
:101C80000000E3E9F4E000811181E1E9F4E0208162
:101C9000318102171307A1F700E010E0EDE7F2E051
:101CA0000083118301C00000ADE7B2E0ED91FC912B
:101CB0007E97C8F30CE75AD100910B0100610093A5
:101CC0000B01129A00E010E0EDE7F2E000831183CF
:101CD00001C00000ADE7B2E0ED91FC917E97C8F342
:101CE0001298139A00E010E0EDE7F2E00083118310
:101CF00090E01C9B91E00000EDE7F2E00081118193
:101D0000053620E0120708F092E0992391F30CE7E2
:101D10002DD10CE72BD1009102010160009302014B
:101D200003E524D125D601E00093710201E0009380
:101D3000F50500E00093FD05E4E00C94C80DBA93AE
:101D4000AA9301E00093F80500E00093F9050091E3
:101D500002010460009302011AD600E000937102B0
:101D600000E00093750200E00093720200E010E0D2
:101D7000E7E8F2E000831183439841984098429845
:101D800000910B010F7E00930B011398129A00E053
:101D900010E0EDE7F2E00083118301C00000ADE741
:101DA000B2E0ED91FC917E97C8F312980091020188
:101DB0000E7F0093020101C000000091F905083276
:101DC000D8F3009102010B7F009302010E94C59796
:101DD0000091050108600093050100910501006173
:101DE0000093050100910501016000930501009138
:101DF000050102600093050108E5B8D000910201D9
:101E00000B7F0093020100E00093F505A991B991C1
:101E10000895FA93EA934A933A932A931A930A936A
:101E20002FB73BB74CB70091FB05015031F5ECEFF4
:101E3000F5E00081039500830091FC05093251F023
:101E40000091FC0510E0F801E854FA4F008100937E
:101E5000C60031C00091FC05093269F502E000932B
:101E6000FB0500E00093FC050091C10000610093B8
:101E7000C10000E0009379021EC0E0EAF4E00081B6
:101E8000039500830091A00410919F04011751F461
:101E90000091C10000610093C100289800E0009308
:101EA000790209C00091A00410E0F801EF55FB4F42
:101EB00000810093C6004CBF3BBF2FBF0991199111
:101EC000299139914991E991F991189500E0009390
:101ED000330600E00093790200E000939F0400E0E5
:101EE0000093A00400E00093C6000091C1000860C8
:101EF0000093C1000091C10000610093C1000091F6
:101F0000C10000640093C10003E00093C40028985E
:101F100008950091C000102F17FF27C00091C60040
:101F20000D3081F400E02091330630E0F901EC5CE3
:101F3000F94F008300E00093330601E00093700244
:101F400000E008952091330630E0F901EC5CF94F90
:101F50000083E3E3F6E000810395008300913306FC
:101F6000043619F400E000933306089510E0209140
:101F700079022223C1F4289A1091C10018601093AD
:101F8000C10020919F0430E0F901EF55FB4F008321
:101F90000093C600EFE9F4E000810395008301E0BF
:101FA00000937902089510919F04139501C00000D9
:101FB0002091A0042117D9F320919F0430E0F9016A
:101FC000EF55FB4F0083EFE9F4E0008103950083B8
:101FD00008950E94B70DD80140E050E081E00C91D7
:101FE0000D3279F48FEF11960CC00AE010E00E94D8
:101FF000980BFD01408150E04F705070400F511F11
:1020000011960C91002389F7082F102F110F110B37
:102010000E94980BE4E00C94C80DBA93AA93D801DF
:1020200040E050E010C00AE010E00E94980B4C9194
:1020300050E04F705070400F511F1196EDE5F2E0E7
:10204000008103950083FD010081003561F78A015D
:10205000A991B99108950E94B70DD80180E0BB23E2
:1020600042F40DE283DFAD010FEF1FEF0E94980BEA
:10207000D8019D0108E916E01BD090E0FC01E8566C
:10208000F94F0081002351F400E370DF07C090E0B6
:10209000FC01E856F94F008169DF839590E0FC016F
:1020A000E856F94F0081002391F7E4E00C94C80D45
:1020B0000E94B30DD80180E197E2442439018301E5
:1020C000AC010E94A60B502E8301AC010E94A60B0E
:1020D0003A01552011F04424439401E0401629F4BC
:1020E00000E3500EFD01508211968C014AE050E051
:1020F0000E94A60BC801082F092B09F700E00C93DA
:10210000E8E00C94C40D9A938A93C801FC010490F2
:1021100006C0002D2BDF0196FC01CF0104900020AA
:10212000C1F78991999108950CEE10E0ECDF0895C4
:1021300000E711E0E8DF0895FA93EA936A935A936F
:102140004A933A932A931A930A934FB75BB76CB7A3
:102150000091A105002309F005C1ECE7F2E0008140
:102160000395008300E010915202011B06BD00E0C0
:102170000093E40500E00093E605ECEAF5E0008159
:102180000F700083E5E7F4E000811181E7E8F2E0F9
:10219000208131810217130708F0C6C000917C022C
:1021A000015049F00A95B9F10A9509F45EC00A9503
:1021B00009F485C0AFC000911906002309F0AAC038
:1021C000369B03C002E00093B405429A2B9A03E0C9
:1021D0000093080602E00093170600E010E0E6E036
:1021E000F6E00083118300E000931D0602E00093F7
:1021F00018060EE01DEF109325010093240101E065
:10220000009321010091730001600093730001E0CD
:10221000009319067FC000911A06002309F07AC0C6
:10222000379B03C002E00093B505439A2A9A04E065
:102230000093080603E00093170600E000931D06D4
:1022400002E0009318060EE01DEF109325010093A5
:10225000240101E0009321010091730001600093CB
:10226000730001E000931A0655C000911B0600237D
:1022700009F050C0359B03C002E00093B305419ABA
:10228000299A02E00093080601E00093170600E097
:1022900000931D0602E0009318060EE01DEF109358
:1022A00025010093240101E00093210100917300B6
:1022B00001600093730001E000931B062BC00091A6
:1022C0001C06002339F5349B03C002E00093B205DD
:1022D000409A2F9A01E00093080600E100936D00F8
:1022E00000E00093170600E000931D0602E0009353
:1022F00018060EE01DEF109325010093240101E064
:10230000009321010091730001600093730001E0CC
:1023100000931C06E7E8F2E0008120917C0230E0A7
:10232000F901E258FD4F008300918400109185006F
:10233000E5E5F2E000831183B09B07C004E214EFEF
:10234000E5E5F2E000831183B09A00E010E010931D
:1023500085000093840004E00093810001E0009375
:10236000720207C00091A105023019F401E0009348
:10237000A4056CBF5BBF4FBF099119912991399199
:10238000499159916991E991F9911895AA939A9374
:102390008A93FA93EA933A922A921A920A927A9339
:1023A0006A935A934A933A932A931A930A938FB74C
:1023B0009BB7ACB7EDE9F4E0008111811093950073
:1023C00000939400EDE7F2E0008111810F5F1F4F51
:1023D00000831183E9EFF5E0008103950083E6E1D6
:1023E000F6E00081039500830091FD05013029F599
:1023F000009116060C5039F00C5059F00C5079F041
:102400000C5099F01AC0009102010E7F0093020156
:1024100014C0009102010160009302010EC00091FE
:1024200002010E7F0093020108C0009102010160C9
:102430000093020100E000931606E7E9F4E0008152
:1024400003950083009197040A3019F401E000938A
:10245000E205009197040C30A1F500E00093970489
:102460000091FB05023049F400917A02013029F411
:1024700000E00093FB050E948F96E8E9F4E00081FC
:1024800003950083009198040837D9F400917102F4
:10249000013041F4E9E9F4E0008111810F5F1F4F41
:1024A0000083118300917B02013041F4EBE9F4E0F9
:1024B000008111810F5F1F4F0083118300E00093A3
:1024C0009804E1E9F4E000811181E3E9F4E020817E
:1024D00031810217130709F476C0E1E9F4E00081C5
:1024E0001181E3E9F4E02081318102171307D8F468
:1024F000EBE5F2E000810A95008300915B02002386
:1025000019F404E000935B02E1E9F4E00081118139
:102510000F5F1F4F008311830FE81DEFEDE9F4E01B
:10252000008311831AC0EBE5F2E00081039500837C
:1025300000915B02053019F401E000935B02E1E9D0
:10254000F4E00081118101501040008311830FE8F5
:102550001DEFEDE9F4E00083118300915B0201506F
:1025600039F00A9581F00A95C9F00A9511F12BC04E
:1025700000910501006200930501009105010460CE
:102580000093050120C0009105010F7D0093050116
:102590000091050104600093050115C0009105013B
:1025A0000F7D00930501009105010B7F009305014C
:1025B0000AC0009105010062009305010091050128
:1025C0000B7F00930501ACBF9BBF8FBF0991199191
:1025D000299139914991599169917991099019906D
:1025E00029903990E991F99189919991A99118953A
:1025F000FA93EA934A933A932A931A930A932FB73A
:102600003BB74CB700E71EEF1093A5000093A40062
:1026100000917F02002331F0EFE7F2E000810A959C
:1026200000831AC000911906013079F400E010E02F
:10263000109325010093240100E00093730000E053
:102640000093210100E00093190642982B98009115
:1026500008010F770093080100918002002331F0F8
:10266000EFE7F2E001810A9501831AC000911A0692
:10267000013079F400E010E010932501009324016B
:1026800000E00093730000E00093210100E000935C
:102690001A0643982A98009108010F7B00930801BD
:1026A00000918102002331F0EFE7F2E002810A9508
:1026B000028315C000911B06013079F400E010E0A0
:1026C000109325010093240100E00093730000E0C3
:1026D0000093210100E000931B0641982998009186
:1026E0008202002331F0EFE7F2E003810A950383D1
:1026F00015C000911C06013079F400E010E0109341
:1027000025010093240100E00093730000E0009392
:10271000210100E000931C0640982F984CBF3BBF5E
:102720002FBF09911991299139914991E991F99115
:102730001895FA93EA934A933A932A931A930A9331
:102740002FB73BB74CB70EE01DEF10932501009358
:10275000240100911706005049F00A95F9F10A95F5
:1027600009F474C00A9509F4A9C0DEC000911806E6
:10277000005029F00A9541F00A9559F0D5C04098CB
:1027800001E000931806D0C0409A00E000931806BC
:10279000CBC00091B205023051F4349908C0EEEF7D
:1027A000F5E0008111810F5F1F4F00831183EDE180
:1027B000F6E000810395008300911D06063409F0C0
:1027C000B3C000E000931D0600E00093180600E08F
:1027D0000093B20501E000935C02A6C000911806C8
:1027E000005029F00A9541F00A9559F09DC0419892
:1027F00001E00093180698C0419A00E00093180683
:1028000093C00091B305023051F4359908C0E0E05F
:10281000F6E0008111810F5F1F4F00831183EDE10E
:10282000F6E000810395008300911D06063409F04F
:102830007BC000E000931D0600E00093180600E056
:102840000093B30502E000935C026EC0009118068D
:10285000005029F00A9541F00A9559F065C0429858
:1028600001E00093180660C0429A00E00093180649
:102870005BC00091B405023051F4369908C0E2E023
:10288000F6E0008111810F5F1F4F00831183EDE19E
:10289000F6E000810395008300911D06063409F0DF
:1028A00043C000E000931D0600E00093180600E01E
:1028B0000093B40503E000935C0236C00091180653
:1028C000005029F00A9541F00A9559F02DC043981F
:1028D00001E00093180628C0439A00E00093180610
:1028E00023C00091B505023051F4379908C0E4E0E7
:1028F000F6E0008111810F5F1F4F00831183EDE12E
:10290000F6E000810395008300911D06063461F412
:1029100000E000931D0600E00093180600E000931D
:10292000B50504E000935C024CBF3BBF2FBF09918B
:102930001991299139914991E991F991189500E0FE
:1029400010E0109385000093840004E00093810060
:1029500008950FE81DEF10939500009394000091E7
:10296000710001600093710004E0009391000895EC
:1029700000E71EEF1093A5000093A40000917200E1
:1029800001600093720002E00093A1000895F894A2
:10299000009172000E7F0093720000E00093A1008E
:1029A00078940895392F482F80E090E001C0019677
:1029B00080179107E1F7842F932F0895BA93AA9374
:1029C00000E00093700213C00091F9050F3170F020
:1029D00000E00093F90500E00093F70500E00093A4
:1029E000F805009102010D7F009302017894009197
:1029F0007102013031F400917502013011F40E942E
:102A0000507B00917202013011F40E94077FE3E5D0
:102A1000F2E0008111810D3221E0120724F001E083
:102A200000937B0203C000E000937B0200917002E0
:102A3000013009F4EFD10E94547F6BDA00915C02FF
:102A4000015049F00A95C1F10A9509F466C00A954A
:102A500009F494C0C2C0AEEFB5E0ED91FC917F9750
:102A600090F000E010E0EEEFF5E00083118300E06D
:102A70000093E705E7EAF5E00081007F008300E0CE
:102A800000935C02AAC0AEEFB5E0ED91FC917E9799
:102A900008F0A3C000E010E0EEEFF5E00083118342
:102AA00001E00093E705E7EAF5E0008103600083B9
:102AB00000E000935C0291C0A0E0B6E0ED91FC91D3
:102AC0007F9790F000E010E0E0E0F6E000831183F3
:102AD00000E00093E805E7EAF5E000810F7000836D
:102AE00000E000935C0279C0A0E0B6E0ED91FC91BB
:102AF0007E9708F072C000E010E0E0E0F6E00083AE
:102B0000118301E00093E805E7EAF5E00081006247
:102B1000008300E000935C0260C0A2E0B6E0ED91AB
:102B2000FC917F9790F000E010E0E2E0F6E0008397
:102B3000118300E00093E905E8EAF5E00081007FF9
:102B4000008300E000935C0248C0A2E0B6E0ED9193
:102B5000FC917E9708F041C000E010E0E2E0F6E072
:102B60000083118301E00093E905E8EAF5E00081C4
:102B70000360008300E000935C022FC0A4E0B6E095
:102B8000ED91FC917F9790F000E010E0E4E0F6E03A
:102B90000083118300E00093EA05E8EAF5E0008194
:102BA0000F70008300E000935C0217C0A4E0B6E061
:102BB000ED91FC917E9788F400E010E0E4E0F6E00F
:102BC0000083118301E00093EA05E8EAF5E0008163
:102BD0000062008300E000935C020091E205013096
:102BE00051F50E941880E3EEF5E000810395008323
:102BF000E4EEF5E00081039500830091E3050430E5
:102C000058F0ECEAF5E000810760008301E00093F2
:102C1000E50500E00093E3050091E405043058F079
:102C2000ECEAF5E000810065008301E00093E60531
:102C300000E00093E4050FEF0093AE05009103015F
:102C4000102F16FF44C000E00093F6050091E70541
:102C50001091E805100F0091E905010F1091EA05A8
:102C6000100FE6EFF5E00081010F00830091E5050C
:102C70001091E605100F0091F005010F1091F1057C
:102C8000100F0091F205010F1091B005100F009187
:102C9000B105010FE6EFF5E01081100F10830091F0
:102CA000F605002351F400910F060023C9F40091AA
:102CB00002010D7F0093020113C000910F06002353
:102CC00079F40091020102600093020109C00091B1
:102CD0000F06002329F4009102010D7F00930201E9
:102CE0000091A105033079F406E240D9E2EAF5E06B
:102CF00000813CD900E00093A10500E010E0E2EA89
:102D0000F5E00083118300910F06005019F00A9539
:102D100069F012C0009102010D7F0093020100E0F2
:102D20000093B00500E00093F70506C001E00093B2
:102D3000B00501E00093F7050091F705013009F0B7
:102D400055CE0091F805005059F00A9511F10A95F9
:102D5000A1F10A9509F44AC00A9509F435CE46CE88
:102D60000091F9050B3008F441CE00E00093F9051D
:102D700000E00093F70501E00093F80500910201DF
:102D800004600093020100910201026000930201BD
:102D90002DCE0091F9050B3008F428CE00E0009309
:102DA000F90500E00093F70502E00093F8050091B3
:102DB00002010D7F0093020119CE0091F9050B303D
:102DC00008F414CE00E00093F90500E00093F70545
:102DD00003E00093F80500910201046000930201F2
:102DE0000091020102600093020100CE0091F905FA
:102DF0000B3008F4FBCD00E00093F90500E00093F0
:102E0000F70504E00093F805009102010D7F00939F
:102E10000201ECCD89D900EF10E024D010E0E4E904
:102E2000F0E0FBBFFFE00C945A0DD1D215C076D272
:102E300013C008D311C00E94FC790EC00E94F57423
:102E40000BC06ED209C00E94A33A06C06ED004C067
:102E5000FED202C001E058D000E00093700203E20D
:102E600085D80895F8010490202D0F5F1F4F203260
:102E700009F045C040E030E0F8010490202D642FB7
:102E8000462F4395F80104900F5F1F4F70E0FB0140
:102E9000EC5CF94F5081501509F031E0222311F01C
:102EA000313051F7222359F5332389F4F801319653
:102EB00004902FE002222AE0029E202D0E5F1F4F79
:102EC000F8010490020E202D2F70022F089550E07B
:102ED000FA01ED5CF94F3081303289F4F801319616
:102EE00004902FE002222AE0029E202D0E5F1F4F49
:102EF000F8010490020E202D2F70022F08952A3021
:102F000009F0B0CF00E00895005019F00A9529F0BB
:102F100008C000E511E0F7D8089501E611E0F3D804
:102F2000089500E511E0EFD808959A938A930091EF
:102F300038060B34D1F4009139060033B1F40CE3B8
:102F400016E047D8C801EEE5F2E0008111810817CC
:102F5000190731F401E000930E060E946F8905C045
:102F600000E000930E060E946F89009138060B3432
:102F7000D1F4009139060133B1F40CE316E029D8FD
:102F8000C801E5E9F4E0008111810817190731F45F
:102F900002E000930E060E946F8905C001E00093D5
:102FA0000E060E946F89009138060B34D9F4009107
:102FB00039060233B9F40CE316E00E94E90FC801A8
:102FC000E9E6F4E0008111810817190731F403E004
:102FD00000930E060E946F8905C002E000930E0662
:102FE0000E946F89009138060B34D9F4009139069C
:102FF0000333B9F40CE316E00E94E90FC801E3E8DB
:10300000F4E0008111810817190731F404E00093FE
:103010000E060E946F8905C003E000930E060E9411
:103020006F89009138060B34D9F4009139060433C6
:10303000B9F40CE316E00E94E90FC801E1E8F4E0FE
:10304000008111810817190731F405E000930E067D
:103050000E946F8905C004E000930E060E946F89EC
:10306000009138060435D9F4009139060336B9F4D5
:103070000CE316E00E94E90FC801E7E5F2E00081E9
:1030800011810817190731F406E000930E060E941B
:103090006F8905C005E000930E060E946F890091BC
:1030A00038060434D9F4009139060C36B9F40CE32F
:1030B00016E00E94E90FC801E9E0F6E00081118105
:1030C0000817190731F407E000930E060E946F8974
:1030D00005C006E000930E060E946F890091380635
:1030E0000434D9F4009139060836B9F40CE316E03B
:1030F0000E94E90FC801EBE0F6E00081118108179A
:10310000190731F408E000930E060E946F8905C08C
:1031100007E000930E060E946F890091380609347B
:10312000D9F4009139060436B9F40CE316E00E9494
:10313000E90FC801E9EFF3E00081118108171907D1
:1031400031F409E000930E060E946F8905C008E083
:1031500000930E060E946F89009138060D34D1F459
:10316000009139060F36B1F40CE316E00E94E90F26
:10317000C8010091900410E00817190731F40AE023
:1031800000930E060E946F8905C009E000930E06A9
:103190000E946F89009138060435D9F400913906F0
:1031A0000F36B9F40CE316E00E94E90FC801E7E816
:1031B000F4E0008111810817190731F40BE0009346
:1031C0000E060E946F8905C00AE000930E060E9459
:1031D0006F89009138060435D9F4009139060B3611
:1031E000B9F40CE316E00E94E90FC801E5E8F4E049
:1031F000008111810817190731F40CE000930E06C5
:103200000E946F8905C00BE000930E060E946F8933
:10321000009138060435D9F4009139060D36B9F419
:103220000CE316E00E94E90FC801E9E0F4E0008138
:1032300011810817190731F40DE000930E060E9462
:103240006F8905C00CE000930E060E946F89009103
:1032500038060D34D1F4009139060437B1F40CE38B
:1032600016E00E94E90FC8010091500210E0081713
:10327000190731F40EE000930E060E946F8905C015
:103280000DE000930E060E946F890091380600350C
:10329000F9F4009139060C36D9F40CE316E00E94DB
:1032A000E90FC801E1E7F4E00081118145E050E059
:1032B0000E94A60B0817190731F40FE000930E06C1
:1032C0000E946F8905C00EE000930E060E946F8970
:1032D000009138060035F9F4009139060936D9F421
:1032E0000CE316E00E94E90FC801E7E7F4E0008173
:1032F000118145E050E00E94A60B0817190731F430
:1033000000E100930E060E946F8905C00FE0009354
:103310000E060E946F89899199910895A895089544
:103320000E94B40D00E000930E0680E090E043C0E0
:10333000AC0100E110E00E94980B0A0F1B1F065D14
:103340001E4F0E94AD86602E09E9402E03E0502EEC
:10335000AC0100E110E00E94980B400E511E4A0E95
:103360005B1EF201608209E9402E03E0502EAC01A1
:1033700000E110E00E94980B400E511E4A0E5B1EA9
:10338000F201108105E0109F602C09E9402E03E056
:10339000502EAC0100E110E00E94980B400E511E2F
:1033A0004A0E5B1EF20160821196A03100E0B00768
:1033B0000CF4BECF0196863000E090071CF4A0E02C
:1033C000B0E0F3CF0E946F89E7E00C94C50D009147
:1033D0003906013631F40E9413810E9494100E9434
:1033E000981000913906003731F40E94C1840E9480
:1033F00094100E94981000913906043731F40E940D
:103400004A850E9494100E94981000913906043653
:1034100051F400913A06023731F40E9479850E94F6
:1034200094100E94981000913906043651F40091CE
:103430003A06013731F40E94D7850E9494100E9409
:103440009810089504EE10E00E94831008959A9356
:103450008A93229710E020E000E000935D02009143
:103460003806043431F500913906013411F5009124
:103470003A060033F1F400913B060133D1F40CE33A
:1034800016E00E94E90F80919A0390E0A80105E000
:1034900010E00E94980B8017910731F000E1009333
:1034A0000E060E946F8905C001E100930E060E947E
:1034B0006F8900913806043431F5009139060134E2
:1034C00011F500913A060033F1F400913B06023306
:1034D000D1F40CE316E00E94E90F80919B0390E089
:1034E000A80105E010E00E94980B8017910731F0C9
:1034F00001E100930E060E946F8905C002E100936E
:103500000E060E946F8900913806043431F500914F
:103510003906013411F500913A060033F1F40091B7
:103520003B060333D1F40CE316E00E94E90F8091CF
:103530009C0390E0A80105E010E00E94980B801722
:10354000910731F002E100930E060E946F8905C0D9
:1035500003E100930E060E946F890091380604343F
:1035600031F500913906013411F500913A06003326
:10357000F1F400913B060433D1F40CE316E00E9411
:10358000E90F80919D0390E0A80105E010E00E9402
:10359000980B8017910731F003E100930E060E940B
:1035A0006F8905C004E100930E060E946F890091A7
:1035B0003806043431F500913906013411F50091D3
:1035C0003A060033F1F400913B060533D1F40CE3E5
:1035D00016E00E94E90F80919E0390E0A80105E0AB
:1035E00010E00E94980B8017910731F004E10093DE
:1035F0000E060E946F8905C005E100930E060E9429
:103600006F8900913806043431F500913906013490
:1036100011F500913A060033F1F400913B060633B0
:10362000D1F40CE316E00E94E90F80919F0390E033
:10363000A80105E010E00E94980B8017910731F077
:1036400005E100930E060E946F8905C006E1009314
:103650000E060E946F8900913806043431F50091FE
:103660003906013411F500913A060033F1F4009166
:103670003B060733D1F40CE316E00E94E90F80917A
:10368000A00390E0A80105E010E00E94980B8017CD
:10369000910731F006E100930E060E946F8905C084
:1036A00007E100930E060E946F89009138060434EA
:1036B00031F500913906013411F500913A060033D5
:1036C000F1F400913B060833D1F40CE316E00E94BC
:1036D000E90F8091A10390E0A80105E010E00E94AD
:1036E000980B8017910731F007E100930E060E94B6
:1036F0006F8905C008E100930E060E946F89009152
:103700003806043431F500913906013411F5009181
:103710003A060033F1F400913B060933D1F40CE38F
:1037200016E00E94E90F8091A20390E0A80105E055
:1037300010E00E94980B8017910731F008E1009388
:103740000E060E946F8905C009E100930E060E94D3
:103750006F8900913806043431F50091390601343F
:1037600011F500913A060133F1F400913B06003364
:10377000D1F40CE316E00E94E90F8091A30390E0DE
:10378000A80105E010E00E94980B8017910731F026
:1037900009E100930E060E946F8905C00AE10093BB
:1037A0000E060E946F8900913806043431F50091AD
:1037B0003906013411F500913A060133F1F4009114
:1037C0003B060133D1F40CE316E00E94E90F80912F
:1037D000A40390E0A80105E010E00E94980B801778
:1037E000910731F00AE100930E060E946F8905C02F
:1037F0000BE100930E060E946F8900913806043495
:1038000031F500913906013411F500913A06013382
:10381000F1F400913B060233D1F40CE316E00E9470
:10382000E90F8091A50390E0A80105E010E00E9457
:10383000980B8017910731F00BE100930E060E9460
:103840006F8905C00CE100930E060E946F890091FC
:103850003806043431F500913906013411F5009130
:103860003A060133F1F400913B060333D1F40CE343
:1038700016E00E94E90F8091A60390E0A80105E000
:1038800010E00E94980B8017910731F00CE1009333
:103890000E060E946F8905C00DE100930E060E947E
:1038A0006F8900913806043431F5009139060134EE
:1038B00011F500913A060133F1F400913B0604330F
:1038C000D1F40CE316E00E94E90F8091A70390E089
:1038D000A80105E010E00E94980B8017910731F0D5
:1038E0000DE100930E060E946F8905C00EE1009362
:1038F0000E060E946F8900913806043431F500915C
:103900003906013411F500913A060133F1F40091C2
:103910003B060533D1F40CE316E00E94E90F8091D9
:10392000A80390E0A80105E010E00E94980B801722
:10393000910731F00EE100930E060E946F8905C0D9
:103940000FE100930E060E946F890091380604343F
:1039500031F500913906023411F500913A06003331
:10396000F1F400913B060133D1F40CE316E00E9420
:10397000E90F8091AA0390E0A80105E010E00E9401
:10398000980B8017910731F00FE100930E060E940B
:103990006F8905C000E200930E060E946F890091B6
:1039A0003806043431F500913906023411F50091DE
:1039B0003A060033F1F400913B060233D1F40CE3F4
:1039C00016E00E94E90F8091AB0390E0A80105E0AA
:1039D00010E00E94980B8017910731F000E20093ED
:1039E0000E060E946F8905C001E200930E060E9438
:1039F0006F8900913806043431F50091390602349C
:103A000011F500913A060033F1F400913B060333BF
:103A1000D1F40CE316E00E94E90F8091AC0390E032
:103A2000A80105E010E00E94980B8017910731F083
:103A300001E200930E060E946F8905C002E2009326
:103A40000E060E946F8900913806043431F500910A
:103A50003906023411F500913A060033F1F4009171
:103A60003B060433D1F40CE316E00E94E90F809189
:103A7000AD0390E0A80105E010E00E94980B8017CC
:103A8000910731F002E200930E060E946F8905C093
:103A900003E200930E060E946F89009138060434F9
:103AA00031F500913906023411F500913A060033E0
:103AB000F1F400913B060533D1F40CE316E00E94CB
:103AC000E90F8091AE0390E0A80105E010E00E94AC
:103AD000980B8017910731F003E200930E060E94C5
:103AE0006F8905C004E200930E060E946F89009161
:103AF0003806043431F500913906023411F500918D
:103B00003A060033F1F400913B060633D1F40CE39E
:103B100016E00E94E90F8091AF0390E0A80105E054
:103B200010E00E94980B8017910731F004E2009397
:103B30000E060E946F8905C005E200930E060E94E2
:103B40006F8900913806043431F50091390602344A
:103B500011F500913A060033F1F400913B0607336A
:103B6000D1F40CE316E00E94E90F8091B00390E0DD
:103B7000A80105E010E00E94980B8017910731F032
:103B800005E200930E060E946F8905C006E20093CD
:103B90000E060E946F8900913806043431F50091B9
:103BA0003906023411F500913A060033F1F4009120
:103BB0003B060833D1F40CE316E00E94E90F809134
:103BC000B10390E0A80105E010E00E94980B801777
:103BD000910731F006E200930E060E946F8905C03E
:103BE00007E200930E060E946F89009138060434A4
:103BF00031F500913906023411F500913A0600338F
:103C0000F1F400913B060933D1F40CE316E00E9475
:103C1000E90F8091B20390E0A80105E010E00E9456
:103C2000980B8017910731F007E200930E060E946F
:103C30006F8905C008E200930E060E946F8900910B
:103C40003806043431F500913906023411F500913B
:103C50003A060133F1F400913B060033D1F40CE352
:103C600016E00E94E90F8091B30390E0A80105E0FF
:103C700010E00E94980B8017910731F008E2009342
:103C80000E060E946F8905C009E200930E060E948D
:103C90006F8900913806043431F5009139060234F9
:103CA00011F500913A060133F1F400913B0601331E
:103CB000D1F40CE316E00E94E90F8091B40390E088
:103CC000A80105E010E00E94980B8017910731F0E1
:103CD00009E200930E060E946F8905C00AE2009374
:103CE0000E060E946F8900913806043431F5009168
:103CF0003906023411F500913A060133F1F40091CE
:103D00003B060233D1F40CE316E00E94E90F8091E8
:103D1000B50390E0A80105E010E00E94980B801721
:103D2000910731F00AE200930E060E946F8905C0E8
:103D30000BE200930E060E946F890091380604344E
:103D400031F500913906023411F500913A0601333C
:103D5000F1F400913B060333D1F40CE316E00E942A
:103D6000E90F8091B60390E0A80105E010E00E9401
:103D7000980B8017910731F00BE200930E060E941A
:103D80006F8905C00CE200930E060E946F890091B6
:103D90003806043431F500913906023411F50091EA
:103DA0003A060133F1F400913B060433D1F40CE3FD
:103DB00016E00E94E90F8091B70390E0A80105E0AA
:103DC00010E00E94980B8017910731F00CE20093ED
:103DD0000E060E946F8905C00DE200930E060E9438
:103DE0006F8900913806043431F5009139060234A8
:103DF00011F500913A060133F1F400913B060533C9
:103E0000D1F40CE316E00E94E90F8091B80390E032
:103E1000A80105E010E00E94980B8017910731F08F
:103E20000DE200930E060E946F8905C00EE200931A
:103E30000E060E946F8900913806043431F5009116
:103E40003906033411F500913A060033F1F400917C
:103E50003B060133D1F40CE316E00E94E90F809198
:103E6000BA0390E0A80105E010E00E94980B8017CB
:103E7000910731F00EE200930E060E946F8905C093
:103E80000FE200930E060E946F89009138060434F9
:103E900031F500913906033411F500913A060033EB
:103EA000F1F400913B060233D1F40CE316E00E94DA
:103EB000E90F8091BB0390E0A80105E010E00E94AB
:103EC000980B8017910731F00FE200930E060E94C5
:103ED0006F8905C000E300930E060E946F89009170
:103EE0003806043431F500913906033411F5009198
:103EF0003A060033F1F400913B060333D1F40CE3AE
:103F000016E00E94E90F8091BC0390E0A80105E053
:103F100010E00E94980B8017910731F000E30093A6
:103F20000E060E946F8905C001E300930E060E94F1
:103F30006F8900913806043431F500913906033455
:103F400011F500913A060033F1F400913B06043379
:103F5000D1F40CE316E00E94E90F8091BD0390E0DC
:103F6000A80105E010E00E94980B8017910731F03E
:103F700001E300930E060E946F8905C002E30093DF
:103F80000E060E946F8900913806043431F50091C5
:103F90003906033411F500913A060033F1F400912B
:103FA0003B060533D1F40CE316E00E94E90F809143
:103FB000BE0390E0A80105E010E00E94980B801776
:103FC000910731F002E300930E060E946F8905C04D
:103FD00003E300930E060E946F89009138060434B3
:103FE00031F500913906033411F500913A0600339A
:103FF000F1F400913B060633D1F40CE316E00E9485
:10400000E90F8091BF0390E0A80105E010E00E9455
:10401000980B8017910731F003E300930E060E947E
:104020006F8905C004E300930E060E946F8900911A
:104030003806043431F500913906033411F5009146
:104040003A060033F1F400913B060733D1F40CE358
:1040500016E00E94E90F8091C00390E0A80105E0FE
:1040600010E00E94980B8017910731F004E3009351
:104070000E060E946F8905C005E300930E060E949C
:104080006F8900913806043431F500913906033404
:1040900011F500913A060033F1F400913B06083324
:1040A000D1F40CE316E00E94E90F8091C10390E087
:1040B000A80105E010E00E94980B8017910731F0ED
:1040C00005E300930E060E946F8905C006E3009386
:1040D0000E060E946F8900913806043431F5009174
:1040E0003906033411F500913A060033F1F40091DA
:1040F0003B060933D1F40CE316E00E94E90F8091EE
:10410000C20390E0A80105E010E00E94980B801720
:10411000910731F006E300930E060E946F8905C0F7
:1041200007E300930E060E946F890091380604345D
:1041300031F500913906033411F500913A06013347
:10414000F1F400913B060033D1F40CE316E00E9439
:10415000E90F8091C30390E0A80105E010E00E9400
:10416000980B8017910731F007E300930E060E9429
:104170006F8905C008E300930E060E946F890091C5
:104180003806043431F500913906033411F50091F5
:104190003A060133F1F400913B060133D1F40CE30C
:1041A00016E00E94E90F8091C40390E0A80105E0A9
:1041B00010E00E94980B8017910731F008E30093FC
:1041C0000E060E946F8905C009E300930E060E9447
:1041D0006F8900913806043431F5009139060334B3
:1041E00011F500913A060133F1F400913B060233D8
:1041F000D1F40CE316E00E94E90F8091C50390E032
:10420000A80105E010E00E94980B8017910731F09B
:1042100009E300930E060E946F8905C00AE300932C
:104220000E060E946F8900913806043431F5009122
:104230003906033411F500913A060133F1F4009187
:104240003B060333D1F40CE316E00E94E90F8091A2
:10425000C60390E0A80105E010E00E94980B8017CB
:10426000910731F00AE300930E060E946F8905C0A2
:104270000BE300930E060E946F8900913806043408
:1042800031F500913906033411F500913A060133F6
:10429000F1F400913B060433D1F40CE316E00E94E4
:1042A000E90F8091C70390E0A80105E010E00E94AB
:1042B000980B8017910731F00BE300930E060E94D4
:1042C0006F8905C00CE300930E060E946F89009170
:1042D0003806043431F500913906033411F50091A4
:1042E0003A060133F1F400913B060533D1F40CE3B7
:1042F00016E00E94E90F8091C80390E0A80105E054
:1043000010E00E94980B8017910731F00CE30093A6
:104310000E060E946F8905C00DE300930E060E94F1
:104320006F8900913806043431F500913906043460
:1043300011F500913A060033F1F400913B06013388
:10434000D1F40CE316E00E94E90F8091CA0390E0DB
:10435000A80105E010E00E94980B8017910731F04A
:104360000DE300930E060E946F8905C00EE30093D3
:104370000E060E946F8900913806043431F50091D1
:104380003906043411F500913A060033F1F4009136
:104390003B060233D1F40CE316E00E94E90F809152
:1043A000CB0390E0A80105E010E00E94980B801775
:1043B000910731F00EE300930E060E946F8905C04D
:1043C0000FE300930E060E946F89009138060434B3
:1043D00031F500913906043411F500913A060033A5
:1043E000F1F400913B060333D1F40CE316E00E9494
:1043F000E90F8091CC0390E0A80105E010E00E9455
:10440000980B8017910731F00FE300930E060E947E
:104410006F8905C000E400930E060E946F89009129
:104420003806043431F500913906043411F5009151
:104430003A060033F1F400913B060433D1F40CE367
:1044400016E00E94E90F8091CD0390E0A80105E0FD
:1044500010E00E94980B8017910731F000E4009360
:104460000E060E946F8905C001E400930E060E94AB
:104470006F8900913806043431F50091390604340F
:1044800011F500913A060033F1F400913B06053333
:10449000D1F40CE316E00E94E90F8091CE0390E086
:1044A000A80105E010E00E94980B8017910731F0F9
:1044B00001E400930E060E946F8905C002E4009398
:1044C0000E060E946F8900913806043431F5009180
:1044D0003906043411F500913A060033F1F40091E5
:1044E0003B060633D1F40CE316E00E94E90F8091FD
:1044F000CF0390E0A80105E010E00E94980B801720
:10450000910731F002E400930E060E946F8905C006
:1045100003E400930E060E946F890091380604346C
:1045200031F500913906043411F500913A06003353
:10453000F1F400913B060733D1F40CE316E00E943E
:10454000E90F8091D00390E0A80105E010E00E94FF
:10455000980B8017910731F003E400930E060E9438
:104560006F8905C004E400930E060E946F890091D4
:104570003806043431F500913906043411F5009100
:104580003A060033F1F400913B060833D1F40CE312
:1045900016E00E94E90F8091D10390E0A80105E0A8
:1045A00010E00E94980B8017910731F004E400930B
:1045B0000E060E946F8905C005E400930E060E9456
:1045C0006F8900913806043431F5009139060434BE
:1045D00011F500913A060033F1F400913B060933DE
:1045E000D1F40CE316E00E94E90F8091D20390E031
:1045F000A80105E010E00E94980B8017910731F0A8
:1046000005E400930E060E946F8905C006E400933E
:104610000E060E946F8900913806043431F500912E
:104620003906043411F500913A060133F1F4009192
:104630003B060033D1F40CE316E00E94E90F8091B1
:10464000D30390E0A80105E010E00E94980B8017CA
:10465000910731F006E400930E060E946F8905C0B1
:1046600007E400930E060E946F8900913806043417
:1046700031F500913906043411F500913A06013301
:10468000F1F400913B060133D1F40CE316E00E94F3
:10469000E90F8091D40390E0A80105E010E00E94AA
:1046A000980B8017910731F007E400930E060E94E3
:1046B0006F8905C008E400930E060E946F8900917F
:1046C0003806043431F500913906043411F50091AF
:1046D0003A060133F1F400913B060233D1F40CE3C6
:1046E00016E00E94E90F8091D50390E0A80105E053
:1046F00010E00E94980B8017910731F008E40093B6
:104700000E060E946F8905C009E400930E060E9400
:104710006F8900913806043431F50091390604346C
:1047200011F500913A060133F1F400913B06033391
:10473000D1F40CE316E00E94E90F8091D60390E0DB
:10474000A80105E010E00E94980B8017910731F056
:1047500009E400930E060E946F8905C00AE40093E5
:104760000E060E946F8900913806043431F50091DD
:104770003906043411F500913A060133F1F4009141
:104780003B060433D1F40CE316E00E94E90F80915C
:10479000D70390E0A80105E010E00E94980B801775
:1047A000910731F00AE400930E060E946F8905C05C
:1047B0000BE400930E060E946F89009138060434C2
:1047C00031F500913906043411F500913A060133B0
:1047D000F1F400913B060533D1F40CE316E00E949E
:1047E000E90F8091D80390E0A80105E010E00E9455
:1047F000980B8017910731F00BE400930E060E948E
:104800006F8905C00CE400930E060E946F89009129
:104810003806043431F500913906053411F500915C
:104820003A060033F1F400913B060133D1F40CE376
:1048300016E00E94E90F8091DA0390E0A80105E0FC
:1048400010E00E94980B8017910731F00CE4009360
:104850000E060E946F8905C00DE400930E060E94AB
:104860006F8900913806043431F50091390605341A
:1048700011F500913A060033F1F400913B06023342
:10488000D1F40CE316E00E94E90F8091DB0390E085
:10489000A80105E010E00E94980B8017910731F005
:1048A0000DE400930E060E946F8905C00EE400938C
:1048B0000E060E946F8900913806043431F500918C
:1048C0003906053411F500913A060033F1F40091F0
:1048D0003B060333D1F40CE316E00E94E90F80910C
:1048E000DC0390E0A80105E010E00E94980B80171F
:1048F000910731F00EE400930E060E946F8905C007
:104900000FE400930E060E946F890091380604346C
:1049100031F500913906053411F500913A0600335E
:10492000F1F400913B060433D1F40CE316E00E944D
:10493000E90F8091DD0390E0A80105E010E00E94FE
:10494000980B8017910731F00FE400930E060E9438
:104950006F8905C000E500930E060E946F890091E3
:104960003806043431F500913906053411F500910B
:104970003A060033F1F400913B060533D1F40CE321
:1049800016E00E94E90F8091DE0390E0A80105E0A7
:1049900010E00E94980B8017910731F000E500931A
:1049A0000E060E946F8905C001E500930E060E9465
:1049B0006F8900913806043431F5009139060534C9
:1049C00011F500913A060033F1F400913B060633ED
:1049D000D1F40CE316E00E94E90F8091DF0390E030
:1049E000A80105E010E00E94980B8017910731F0B4
:1049F00001E500930E060E946F8905C002E5009351
:104A00000E060E946F8900913806043431F500913A
:104A10003906053411F500913A060033F1F400919E
:104A20003B060733D1F40CE316E00E94E90F8091B6
:104A3000E00390E0A80105E010E00E94980B8017C9
:104A4000910731F002E500930E060E946F8905C0C0
:104A500003E500930E060E946F8900913806043426
:104A600031F500913906053411F500913A0600330D
:104A7000F1F400913B060833D1F40CE316E00E94F8
:104A8000E90F8091E10390E0A80105E010E00E94A9
:104A9000980B8017910731F003E500930E060E94F2
:104AA0006F8905C004E500930E060E946F8900918E
:104AB0003806043431F500913906053411F50091BA
:104AC0003A060033F1F400913B060933D1F40CE3CC
:104AD00016E00E94E90F8091E20390E0A80105E052
:104AE00010E00E94980B8017910731F004E50093C5
:104AF0000E060E946F8905C005E500930E060E9410
:104B00006F8900913806043431F500913906053477
:104B100011F500913A060133F1F400913B060033A0
:104B2000D1F40CE316E00E94E90F8091E30390E0DA
:104B3000A80105E010E00E94980B8017910731F062
:104B400005E500930E060E946F8905C006E50093F7
:104B50000E060E946F8900913806043431F50091E9
:104B60003906053411F500913A060133F1F400914C
:104B70003B060133D1F40CE316E00E94E90F80916B
:104B8000E40390E0A80105E010E00E94980B801774
:104B9000910731F006E500930E060E946F8905C06B
:104BA00007E500930E060E946F89009138060434D1
:104BB00031F500913906053411F500913A060133BB
:104BC000F1F400913B060233D1F40CE316E00E94AD
:104BD000E90F8091E50390E0A80105E010E00E9454
:104BE000980B8017910731F007E500930E060E949D
:104BF0006F8905C008E500930E060E946F89009139
:104C00003806043431F500913906053411F5009168
:104C10003A060133F1F400913B060333D1F40CE37F
:104C200016E00E94E90F8091E60390E0A80105E0FC
:104C300010E00E94980B8017910731F008E500936F
:104C40000E060E946F8905C009E500930E060E94BA
:104C50006F8900913806043431F500913906053426
:104C600011F500913A060133F1F400913B0604334B
:104C7000D1F40CE316E00E94E90F8091E70390E085
:104C8000A80105E010E00E94980B8017910731F011
:104C900009E500930E060E946F8905C00AE500939E
:104CA0000E060E946F8900913806043431F5009198
:104CB0003906053411F500913A060133F1F40091FB
:104CC0003B060533D1F40CE316E00E94E90F809116
:104CD000E80390E0A80105E010E00E94980B80171F
:104CE000910731F00AE500930E060E946F8905C016
:104CF0000BE500930E060E946F890091380604347C
:104D000031F500913906063411F500913A06003369
:104D1000F1F400913B060133D1F40CE316E00E945C
:104D2000E90F8091EA0390E0A80105E010E00E94FD
:104D3000980B8017910731F00BE500930E060E9447
:104D40006F8905C00CE500930E060E946F890091E3
:104D50003806043431F500913906063411F5009116
:104D60003A060033F1F400913B060233D1F40CE330
:104D700016E00E94E90F8091EB0390E0A80105E0A6
:104D800010E00E94980B8017910731F00CE500931A
:104D90000E060E946F8905C00DE500930E060E9465
:104DA0006F8900913806043431F5009139060634D4
:104DB00011F500913A060033F1F400913B060333FC
:104DC000D1F40CE316E00E94E90F8091EC0390E02F
:104DD000A80105E010E00E94980B8017910731F0C0
:104DE0000DE500930E060E946F8905C00EE5009345
:104DF0000E060E946F8900913806043431F5009147
:104E00003906063411F500913A060033F1F40091A9
:104E10003B060433D1F40CE316E00E94E90F8091C5
:104E2000ED0390E0A80105E010E00E94980B8017C8
:104E3000910731F00EE500930E060E946F8905C0C0
:104E40000FE500930E060E946F8900913806043426
:104E500031F500913906063411F500913A06003318
:104E6000F1F400913B060533D1F40CE316E00E9407
:104E7000E90F8091EE0390E0A80105E010E00E94A8
:104E8000980B8017910731F00FE500930E060E94F2
:104E90006F8905C000E600930E060E946F8900919D
:104EA0003806043431F500913906063411F50091C5
:104EB0003A060033F1F400913B060633D1F40CE3DB
:104EC00016E00E94E90F8091EF0390E0A80105E051
:104ED00010E00E94980B8017910731F000E60093D4
:104EE0000E060E946F8905C001E600930E060E941F
:104EF0006F8900913806043431F500913906063483
:104F000011F500913A060033F1F400913B060733A6
:104F1000D1F40CE316E00E94E90F8091F00390E0D9
:104F2000A80105E010E00E94980B8017910731F06E
:104F300001E600930E060E946F8905C002E6009309
:104F40000E060E946F8900913806043431F50091F5
:104F50003906063411F500913A060033F1F4009158
:104F60003B060833D1F40CE316E00E94E90F809170
:104F7000F10390E0A80105E010E00E94980B801773
:104F8000910731F002E600930E060E946F8905C07A
:104F900003E600930E060E946F89009138060434E0
:104FA00031F500913906063411F500913A060033C7
:104FB000F1F400913B060933D1F40CE316E00E94B2
:104FC000E90F8091F20390E0A80105E010E00E9453
:104FD000980B8017910731F003E600930E060E94AC
:104FE0006F8905C004E600930E060E946F89009148
:104FF0003806043431F500913906063411F5009174
:105000003A060133F1F400913B060033D1F40CE38E
:1050100016E00E94E90F8091F30390E0A80105E0FB
:1050200010E00E94980B8017910731F004E600937E
:105030000E060E946F8905C005E600930E060E94C9
:105040006F8900913806043431F500913906063431
:1050500011F500913A060133F1F400913B0601335A
:10506000D1F40CE316E00E94E90F8091F40390E084
:10507000A80105E010E00E94980B8017910731F01D
:1050800005E600930E060E946F8905C006E60093B0
:105090000E060E946F8900913806043431F50091A4
:1050A0003906063411F500913A060133F1F4009106
:1050B0003B060233D1F40CE316E00E94E90F809125
:1050C000F50390E0A80105E010E00E94980B80171E
:1050D000910731F006E600930E060E946F8905C025
:1050E00007E600930E060E946F890091380604348B
:1050F00031F500913906063411F500913A06013375
:10510000F1F400913B060333D1F40CE316E00E9466
:10511000E90F8091F60390E0A80105E010E00E94FD
:10512000980B8017910731F007E600930E060E9456
:105130006F8905C008E600930E060E946F890091F2
:105140003806043431F500913906063411F5009122
:105150003A060133F1F400913B060433D1F40CE339
:1051600016E00E94E90F8091F70390E0A80105E0A6
:1051700010E00E94980B8017910731F008E6009329
:105180000E060E946F8905C009E600930E060E9474
:105190006F8900913806043431F5009139060634E0
:1051A00011F500913A060133F1F400913B06053305
:1051B000D1F40CE316E00E94E90F8091F80390E02F
:1051C000A80105E010E00E94980B8017910731F0CC
:1051D00009E600930E060E946F8905C00AE6009357
:1051E0000E060E946F8900913806043409F500917B
:1051F00039060734E9F400913A060033C9F4009106
:105200003B060133A9F40CE316E00E94E90F20915C
:10521000890230E02017310731F00AE600930E06CC
:105220000E946F8905C00BE600930E060E946F89ED
:1052300000913806043409F5009139060734E9F481
:1052400000913A060033C9F400913B060233A9F4F9
:105250000CE316E00E94E90F20918A0230E020174B
:10526000310731F00BE600930E060E946F8905C0EE
:105270000CE600930E060E946F89009138060434F4
:1052800009F5009139060734E9F400913A06003334
:10529000C9F400913B060333A9F40CE316E00E9425
:1052A000E90F20918B0230E02017310731F00CE636
:1052B00000930E060E946F8905C00DE600930E064E
:1052C0000E946F8900913806043409F5009139066F
:1052D0000734E9F400913A060033C9F400913B0623
:1052E0000433A9F40CE316E00E94E90F20918C022C
:1052F00030E02017310731F00DE600930E060E94D2
:105300006F8905C00EE600930E060E946F8900911A
:105310003806043409F5009139060734E9F40091A0
:105320003A060033C9F400913B060533A9F40CE3B7
:1053300016E00E94E90F20918D0230E0201731071E
:1053400031F00EE600930E060E946F8905C00FE64D
:1053500000930E060E946F8900913806043409F507
:10536000009139060734E9F400913A060033C9F494
:1053700000913B060633A9F40CE316E00E94E90F06
:1053800020918E0230E02017310731F00FE60093B4
:105390000E060E946F8905C000E700930E060E946A
:1053A0006F8900913806043409F5009139060734F5
:1053B000E9F400913A060033C9F400913B06073343
:1053C000A9F40CE316E00E94E90F20918F0230E06F
:1053D0002017310731F000E700930E060E946F8915
:1053E00005C001E700930E060E946F890091380600
:1053F000043409F5009139060734E9F400913A06BE
:105400000033C9F400913B060833A9F40CE316E01D
:105410000E94E90F2091900230E02017310731F00F
:1054200001E700930E060E946F8905C002E7009312
:105430000E060E946F8900913806043409F5009128
:1054400039060734E9F400913A060033C9F40091B3
:105450003B060933A9F40CE316E00E94E90F209102
:10546000910230E02017310731F002E700930E0679
:105470000E946F8905C003E700930E060E946F89A2
:1054800000913806043409F5009139060734E9F42F
:1054900000913A060133C9F400913B060033A9F4A8
:1054A0000CE316E00E94E90F2091920230E02017F1
:1054B000310731F003E700930E060E946F8905C0A3
:1054C00004E700930E060E946F89009138060434A9
:1054D00009F5009139060734E9F400913A060133E1
:1054E000C9F400913B060133A9F40CE316E00E94D5
:1054F000E90F2091930230E02017310731F004E7E3
:1055000000930E060E946F8905C005E700930E0602
:105510000E946F8900913806043409F5009139061C
:105520000734E9F400913A060133C9F400913B06CF
:105530000233A9F40CE316E00E94E90F20919402D3
:1055400030E02017310731F005E700930E060E9486
:105550006F8905C006E700930E060E946F890091CF
:105560003806043409F5009139060734E9F400914E
:105570003A060133C9F400913B060333A9F40CE366
:1055800016E00E94E90F2091950230E020173107C4
:1055900031F006E700930E060E946F8905C007E709
:1055A00000930E060E946F8900913806043409F5B5
:1055B000009139060734E9F400913A060133C9F441
:1055C00000913B060433A9F40CE316E00E94E90FB6
:1055D0002091960230E02017310731F007E7009361
:1055E0000E060E946F8905C008E700930E060E9410
:1055F0006F8900913806043409F5009139060734A3
:10560000E9F400913A060133C9F400913B060533F1
:10561000A9F40CE316E00E94E90F2091970230E014
:105620002017310731F008E700930E060E946F89BA
:1056300005C009E700930E060E946F8900913806A5
:10564000043409F5009139060A35E9F400913A0667
:105650000033C9F400913B060133A9F40CE316E0D2
:105660000E94E90F2091990230E02017310731F0B4
:1056700009E700930E060E946F8905C00AE70093B0
:105680000E060E946F8900913806043409F50091D6
:1056900039060A35E9F400913A060033C9F400915D
:1056A0003B060233A9F40CE316E00E94E90F2091B7
:1056B0009A0230E02017310731F00AE700930E0616
:1056C0000E946F8905C00BE700930E060E946F8948
:1056D00000913806043409F5009139060A35E9F4D9
:1056E00000913A060033C9F400913B060333A9F454
:1056F0000CE316E00E94E90F20919B0230E0201796
:10570000310731F00BE700930E060E946F8905C048
:105710000CE700930E060E946F890091380604344E
:1057200009F5009139060A35E9F400913A0600338B
:10573000C9F400913B060433A9F40CE316E00E947F
:10574000E90F20919C0230E02017310731F00CE77F
:1057500000930E060E946F8905C00DE700930E06A8
:105760000E946F8900913806043409F500913906CA
:105770000A35E9F400913A060033C9F400913B067A
:105780000533A9F40CE316E00E94E90F20919D0275
:1057900030E02017310731F00DE700930E060E942C
:1057A0006F8905C00EE700930E060E946F89009175
:1057B0003806043409F5009139060A35E9F40091F8
:1057C0003A060033C9F400913B060633A9F40CE312
:1057D00016E00E94E90F20919E0230E02017310769
:1057E00031F00EE700930E060E946F8905C00FE7A7
:1057F00000930E060E946F8900913806043409F563
:10580000009139060A35E9F400913A060033C9F4EB
:1058100000913B060733A9F40CE316E00E94E90F60
:1058200020919F0230E02017310731F00FE70093FD
:105830000E060E946F8905C000E800930E060E94C4
:105840006F8900913806043409F5009139060A354C
:10585000E9F400913A060033C9F400913B0608339D
:10586000A9F40CE316E00E94E90F2091A00230E0B9
:105870002017310731F000E800930E060E946F896F
:1058800005C001E800930E060E946F89009138065A
:10589000043409F5009139060A35E9F400913A0615
:1058A0000033C9F400913B060933A9F40CE316E078
:1058B0000E94E90F2091A10230E02017310731F05A
:1058C00001E800930E060E946F8905C002E800936C
:1058D0000E060E946F8900913806043409F5009184
:1058E00039060A35E9F400913A060133C9F400910A
:1058F0003B060033A9F40CE316E00E94E90F209167
:10590000A20230E02017310731F002E800930E06C2
:105910000E946F8905C003E800930E060E946F89FC
:1059200000913806043409F5009139060A35E9F486
:1059300000913A060133C9F400913B060133A9F402
:105940000CE316E00E94E90F2091A30230E020173B
:10595000310731F003E800930E060E946F8905C0FD
:1059600004E800930E060E946F8900913806043403
:1059700009F5009139060A35E9F400913A06013338
:10598000C9F400913B060233A9F40CE316E00E942F
:10599000E90F2091A40230E02017310731F004E82C
:1059A00000930E060E946F8905C005E800930E065D
:1059B0000E946F8900913806043409F50091390678
:1059C0000A35E9F400913A060133C9F400913B0627
:1059D0000333A9F40CE316E00E94E90F2091A5021D
:1059E00030E02017310731F005E800930E060E94E1
:1059F0006F8905C006E800930E060E946F8900912A
:105A00003806043409F5009139060A35E9F40091A5
:105A10003A060133C9F400913B060433A9F40CE3C0
:105A200016E00E94E90F2091A60230E0201731070E
:105A300031F006E800930E060E946F8905C007E862
:105A400000930E060E946F8900913806043409F510
:105A5000009139060A35E9F400913A060133C9F498
:105A600000913B060533A9F40CE316E00E94E90F10
:105A70002091A70230E02017310731F007E80093AA
:105A80000E060E946F8905C008E800930E060E946A
:105A90006F8900913806043409F5009139060835FC
:105AA000E9F400913A060033C9F400913B06013352
:105AB000A9F40CE316E00E94E90F2091A90230E05E
:105AC0002017310731F008E800930E060E946F8915
:105AD00005C009E800930E060E946F890091380600
